{
  "_format": "hh-sol-artifact-1",
  "contractName": "Demo",
  "sourceName": "contracts/Demo.sol",
  "abi": [
    {
      "inputs": [
        {
          "internalType": "address",
          "name": "",
          "type": "address"
        }
      ],
      "name": "Doctors",
      "outputs": [
        {
          "internalType": "string",
          "name": "name",
          "type": "string"
        },
        {
          "internalType": "string",
          "name": "aadhar",
          "type": "string"
        },
        {
          "internalType": "string",
          "name": "email",
          "type": "string"
        }
      ],
      "stateMutability": "view",
      "type": "function"
    },
    {
      "inputs": [
        {
          "internalType": "address",
          "name": "",
          "type": "address"
        }
      ],
      "name": "Patients",
      "outputs": [
        {
          "internalType": "address",
          "name": "add",
          "type": "address"
        },
        {
          "internalType": "string",
          "name": "name",
          "type": "string"
        },
        {
          "internalType": "uint256",
          "name": "dob",
          "type": "uint256"
        },
        {
          "internalType": "string",
          "name": "password",
          "type": "string"
        },
        {
          "internalType": "string",
          "name": "aadhar",
          "type": "string"
        }
      ],
      "stateMutability": "view",
      "type": "function"
    },
    {
      "inputs": [
        {
          "internalType": "uint256",
          "name": "",
          "type": "uint256"
        }
      ],
      "name": "aadharList",
      "outputs": [
        {
          "internalType": "string",
          "name": "",
          "type": "string"
        }
      ],
      "stateMutability": "view",
      "type": "function"
    },
    {
      "inputs": [
        {
          "internalType": "string",
          "name": "",
          "type": "string"
        }
      ],
      "name": "aadharToAddress",
      "outputs": [
        {
          "internalType": "address",
          "name": "",
          "type": "address"
        }
      ],
      "stateMutability": "view",
      "type": "function"
    },
    {
      "inputs": [
        {
          "internalType": "string",
          "name": "_aadhar",
          "type": "string"
        },
        {
          "internalType": "string",
          "name": "_fileHash",
          "type": "string"
        },
        {
          "internalType": "string",
          "name": "_fileName",
          "type": "string"
        }
      ],
      "name": "addFiles",
      "outputs": [],
      "stateMutability": "nonpayable",
      "type": "function"
    },
    {
      "inputs": [
        {
          "internalType": "string",
          "name": "_aadhar",
          "type": "string"
        },
        {
          "internalType": "string",
          "name": "_name",
          "type": "string"
        },
        {
          "internalType": "uint256",
          "name": "_dob",
          "type": "uint256"
        }
      ],
      "name": "createUser",
      "outputs": [],
      "stateMutability": "nonpayable",
      "type": "function"
    },
    {
      "inputs": [],
      "name": "deleteUser",
      "outputs": [],
      "stateMutability": "nonpayable",
      "type": "function"
    },
    {
      "inputs": [
        {
          "internalType": "address",
          "name": "",
          "type": "address"
        },
        {
          "internalType": "uint256",
          "name": "",
          "type": "uint256"
        }
      ],
      "name": "docToPatient",
      "outputs": [
        {
          "internalType": "address",
          "name": "",
          "type": "address"
        }
      ],
      "stateMutability": "view",
      "type": "function"
    },
    {
      "inputs": [
        {
          "internalType": "string",
          "name": "_aadharDoc",
          "type": "string"
        },
        {
          "internalType": "uint256",
          "name": "_time",
          "type": "uint256"
        }
      ],
      "name": "grantAccess",
      "outputs": [],
      "stateMutability": "nonpayable",
      "type": "function"
    },
    {
      "inputs": [
        {
          "internalType": "address",
          "name": "",
          "type": "address"
        },
        {
          "internalType": "uint256",
          "name": "",
          "type": "uint256"
        }
      ],
      "name": "patientFiles",
      "outputs": [
        {
          "internalType": "string",
          "name": "hashId",
          "type": "string"
        },
        {
          "internalType": "string",
          "name": "fileName",
          "type": "string"
        },
        {
          "internalType": "address",
          "name": "patientId",
          "type": "address"
        },
        {
          "internalType": "address",
          "name": "doctorId",
          "type": "address"
        },
        {
          "internalType": "uint256",
          "name": "timeAdded",
          "type": "uint256"
        }
      ],
      "stateMutability": "view",
      "type": "function"
    },
    {
      "inputs": [
        {
          "internalType": "address",
          "name": "",
          "type": "address"
        },
        {
          "internalType": "address",
          "name": "",
          "type": "address"
        }
      ],
      "name": "patientToDocAccess",
      "outputs": [
        {
          "internalType": "uint256",
          "name": "",
          "type": "uint256"
        }
      ],
      "stateMutability": "view",
      "type": "function"
    },
    {
      "inputs": [
        {
          "internalType": "string",
          "name": "_aadhar",
          "type": "string"
        },
        {
          "internalType": "string",
          "name": "_name",
          "type": "string"
        },
        {
          "internalType": "string",
          "name": "_email",
          "type": "string"
        }
      ],
      "name": "registerDoctor",
      "outputs": [],
      "stateMutability": "nonpayable",
      "type": "function"
    },
    {
      "inputs": [
        {
          "internalType": "string",
          "name": "_aadharDoc",
          "type": "string"
        }
      ],
      "name": "revokeAccess",
      "outputs": [],
      "stateMutability": "nonpayable",
      "type": "function"
    }
  ],
  "bytecode": "0x608060405234801561001057600080fd5b50612209806100206000396000f3fe608060405234801561001057600080fd5b50600436106100cf5760003560e01c806387a32e041161008c578063d2cddda611610066578063d2cddda61461022a578063dc7aa36b14610246578063f4844a9414610278578063fb310c59146102a8576100cf565b806387a32e04146101aa5780639895acff146101da578063afca7e15146101f6576100cf565b8063026ff05e146100d45780632c0a0b1f146100de57806336a8a3581461010e578063473d8bf51461013e57806350c7a91214610172578063611d041b1461018e575b600080fd5b6100dc6102c4565b005b6100f860048036038101906100f39190611730565b610476565b6040516101059190611789565b60405180910390f35b610128600480360381019061012391906118ea565b61049b565b6040516101359190611942565b60405180910390f35b61015860048036038101906101539190611989565b6104e4565b604051610169959493929190611a48565b60405180910390f35b61018c60048036038101906101879190611aa9565b610687565b005b6101a860048036038101906101a39190611aa9565b610835565b005b6101c460048036038101906101bf9190611b50565b610ab1565b6040516101d19190611b7d565b60405180910390f35b6101f460048036038101906101ef9190611b9f565b610b5d565b005b610210600480360381019061020b9190611bfb565b610d7e565b604051610221959493929190611c28565b60405180910390f35b610244600480360381019061023f9190611c90565b610f6c565b005b610260600480360381019061025b9190611bfb565b611214565b60405161026f93929190611d1b565b60405180910390f35b610292600480360381019061028d9190611989565b6113d6565b60405161029f9190611942565b60405180910390f35b6102c260048036038101906102bd91906118ea565b611424565b005b60008060003373ffffffffffffffffffffffffffffffffffffffff1673ffffffffffffffffffffffffffffffffffffffff168152602001908152602001600020600401805461031290611d96565b80601f016020809104026020016040519081016040528092919081815260200182805461033e90611d96565b801561038b5780601f106103605761010080835404028352916020019161038b565b820191906000526020600020905b81548152906001019060200180831161036e57829003601f168201915b505050505090506003816040516103a29190611e03565b908152602001604051809103902060006101000a81549073ffffffffffffffffffffffffffffffffffffffff02191690556000803373ffffffffffffffffffffffffffffffffffffffff1673ffffffffffffffffffffffffffffffffffffffff168152602001908152602001600020600080820160006101000a81549073ffffffffffffffffffffffffffffffffffffffff021916905560018201600061044991906115e5565b600282016000905560038201600061046191906115e5565b60048201600061047191906115e5565b505050565b6004602052816000526040600020602052806000526040600020600091509150505481565b6003818051602081018201805184825260208301602085012081835280955050505050506000915054906101000a900473ffffffffffffffffffffffffffffffffffffffff1681565b6002602052816000526040600020818154811061050057600080fd5b90600052602060002090600502016000915091505080600001805461052490611d96565b80601f016020809104026020016040519081016040528092919081815260200182805461055090611d96565b801561059d5780601f106105725761010080835404028352916020019161059d565b820191906000526020600020905b81548152906001019060200180831161058057829003601f168201915b5050505050908060010180546105b290611d96565b80601f01602080910402602001604051908101604052809291908181526020018280546105de90611d96565b801561062b5780601f106106005761010080835404028352916020019161062b565b820191906000526020600020905b81548152906001019060200180831161060e57829003601f168201915b5050505050908060020160009054906101000a900473ffffffffffffffffffffffffffffffffffffffff16908060030160009054906101000a900473ffffffffffffffffffffffffffffffffffffffff16908060040154905085565b600073ffffffffffffffffffffffffffffffffffffffff166003846040516106af9190611e03565b908152602001604051809103902060009054906101000a900473ffffffffffffffffffffffffffffffffffffffff1673ffffffffffffffffffffffffffffffffffffffff1614610734576040517f08c379a000000000000000000000000000000000000000000000000000000000815260040161072b90611e66565b60405180910390fd5b604051806060016040528083815260200184815260200182815250600160003373ffffffffffffffffffffffffffffffffffffffff1673ffffffffffffffffffffffffffffffffffffffff16815260200190815260200160002060008201518160000190816107a39190612032565b5060208201518160010190816107b99190612032565b5060408201518160020190816107cf9190612032565b50905050336003846040516107e49190611e03565b908152602001604051809103902060006101000a81548173ffffffffffffffffffffffffffffffffffffffff021916908373ffffffffffffffffffffffffffffffffffffffff160217905550505050565b60006003846040516108479190611e03565b908152602001604051809103902060009054906101000a900473ffffffffffffffffffffffffffffffffffffffff169050600073ffffffffffffffffffffffffffffffffffffffff168173ffffffffffffffffffffffffffffffffffffffff16036108e7576040517f08c379a00000000000000000000000000000000000000000000000000000000081526004016108de90612150565b60405180910390fd5b6108ef611625565b83816000018190525082816020018190525081816040019073ffffffffffffffffffffffffffffffffffffffff16908173ffffffffffffffffffffffffffffffffffffffff168152505033816060019073ffffffffffffffffffffffffffffffffffffffff16908173ffffffffffffffffffffffffffffffffffffffff168152505042816080018181525050600260008373ffffffffffffffffffffffffffffffffffffffff1673ffffffffffffffffffffffffffffffffffffffff16815260200190815260200160002081908060018154018082558091505060019003906000526020600020906005020160009091909190915060008201518160000190816109f99190612032565b506020820151816001019081610a0f9190612032565b5060408201518160020160006101000a81548173ffffffffffffffffffffffffffffffffffffffff021916908373ffffffffffffffffffffffffffffffffffffffff16021790555060608201518160030160006101000a81548173ffffffffffffffffffffffffffffffffffffffff021916908373ffffffffffffffffffffffffffffffffffffffff1602179055506080820151816004015550505050505050565b60068181548110610ac157600080fd5b906000526020600020016000915090508054610adc90611d96565b80601f0160208091040260200160405190810160405280929190818152602001828054610b0890611d96565b8015610b555780601f10610b2a57610100808354040283529160200191610b55565b820191906000526020600020905b815481529060010190602001808311610b3857829003601f168201915b505050505081565b600073ffffffffffffffffffffffffffffffffffffffff16600383604051610b859190611e03565b908152602001604051809103902060009054906101000a900473ffffffffffffffffffffffffffffffffffffffff1673ffffffffffffffffffffffffffffffffffffffff1603610c0a576040517f08c379a0000000000000000000000000000000000000000000000000000000008152600401610c0190612150565b60405180910390fd5b6000600383604051610c1c9190611e03565b908152602001604051809103902060009054906101000a900473ffffffffffffffffffffffffffffffffffffffff1690508142610c59919061219f565b600460003373ffffffffffffffffffffffffffffffffffffffff1673ffffffffffffffffffffffffffffffffffffffff16815260200190815260200160002060008373ffffffffffffffffffffffffffffffffffffffff1673ffffffffffffffffffffffffffffffffffffffff16815260200190815260200160002081905550600560008273ffffffffffffffffffffffffffffffffffffffff1673ffffffffffffffffffffffffffffffffffffffff168152602001908152602001600020339080600181540180825580915050600190039060005260206000200160009091909190916101000a81548173ffffffffffffffffffffffffffffffffffffffff021916908373ffffffffffffffffffffffffffffffffffffffff160217905550505050565b60006020528060005260406000206000915090508060000160009054906101000a900473ffffffffffffffffffffffffffffffffffffffff1690806001018054610dc790611d96565b80601f0160208091040260200160405190810160405280929190818152602001828054610df390611d96565b8015610e405780601f10610e1557610100808354040283529160200191610e40565b820191906000526020600020905b815481529060010190602001808311610e2357829003601f168201915b505050505090806002015490806003018054610e5b90611d96565b80601f0160208091040260200160405190810160405280929190818152602001828054610e8790611d96565b8015610ed45780601f10610ea957610100808354040283529160200191610ed4565b820191906000526020600020905b815481529060010190602001808311610eb757829003601f168201915b505050505090806004018054610ee990611d96565b80601f0160208091040260200160405190810160405280929190818152602001828054610f1590611d96565b8015610f625780601f10610f3757610100808354040283529160200191610f62565b820191906000526020600020905b815481529060010190602001808311610f4557829003601f168201915b5050505050905085565b600073ffffffffffffffffffffffffffffffffffffffff16600384604051610f949190611e03565b908152602001604051809103902060009054906101000a900473ffffffffffffffffffffffffffffffffffffffff1673ffffffffffffffffffffffffffffffffffffffff1614611019576040517f08c379a000000000000000000000000000000000000000000000000000000000815260040161101090611e66565b60405180910390fd5b336000803373ffffffffffffffffffffffffffffffffffffffff1673ffffffffffffffffffffffffffffffffffffffff16815260200190815260200160002060000160006101000a81548173ffffffffffffffffffffffffffffffffffffffff021916908373ffffffffffffffffffffffffffffffffffffffff160217905550816000803373ffffffffffffffffffffffffffffffffffffffff1673ffffffffffffffffffffffffffffffffffffffff16815260200190815260200160002060010190816110e79190612032565b50806000803373ffffffffffffffffffffffffffffffffffffffff1673ffffffffffffffffffffffffffffffffffffffff16815260200190815260200160002060020181905550826000803373ffffffffffffffffffffffffffffffffffffffff1673ffffffffffffffffffffffffffffffffffffffff168152602001908152602001600020600401908161117c9190612032565b506006839080600181540180825580915050600190039060005260206000200160009091909190915090816111b19190612032565b50336003846040516111c39190611e03565b908152602001604051809103902060006101000a81548173ffffffffffffffffffffffffffffffffffffffff021916908373ffffffffffffffffffffffffffffffffffffffff160217905550505050565b600160205280600052604060002060009150905080600001805461123790611d96565b80601f016020809104026020016040519081016040528092919081815260200182805461126390611d96565b80156112b05780601f10611285576101008083540402835291602001916112b0565b820191906000526020600020905b81548152906001019060200180831161129357829003601f168201915b5050505050908060010180546112c590611d96565b80601f01602080910402602001604051908101604052809291908181526020018280546112f190611d96565b801561133e5780601f106113135761010080835404028352916020019161133e565b820191906000526020600020905b81548152906001019060200180831161132157829003601f168201915b50505050509080600201805461135390611d96565b80601f016020809104026020016040519081016040528092919081815260200182805461137f90611d96565b80156113cc5780601f106113a1576101008083540402835291602001916113cc565b820191906000526020600020905b8154815290600101906020018083116113af57829003601f168201915b5050505050905083565b600560205281600052604060002081815481106113f257600080fd5b906000526020600020016000915091509054906101000a900473ffffffffffffffffffffffffffffffffffffffff1681565b600073ffffffffffffffffffffffffffffffffffffffff1660038260405161144c9190611e03565b908152602001604051809103902060009054906101000a900473ffffffffffffffffffffffffffffffffffffffff1673ffffffffffffffffffffffffffffffffffffffff16036114d1576040517f08c379a00000000000000000000000000000000000000000000000000000000081526004016114c890612150565b60405180910390fd5b60006003826040516114e39190611e03565b908152602001604051809103902060009054906101000a900473ffffffffffffffffffffffffffffffffffffffff1690506000600460003373ffffffffffffffffffffffffffffffffffffffff1673ffffffffffffffffffffffffffffffffffffffff16815260200190815260200160002060008373ffffffffffffffffffffffffffffffffffffffff1673ffffffffffffffffffffffffffffffffffffffff16815260200190815260200160002081905550600560003373ffffffffffffffffffffffffffffffffffffffff1673ffffffffffffffffffffffffffffffffffffffff16815260200190815260200160002060006115e19190611680565b5050565b5080546115f190611d96565b6000825580601f106116035750611622565b601f01602090049060005260206000209081019061162191906116a1565b5b50565b6040518060a001604052806060815260200160608152602001600073ffffffffffffffffffffffffffffffffffffffff168152602001600073ffffffffffffffffffffffffffffffffffffffff168152602001600081525090565b508054600082559060005260206000209081019061169e91906116a1565b50565b5b808211156116ba5760008160009055506001016116a2565b5090565b6000604051905090565b600080fd5b600080fd5b600073ffffffffffffffffffffffffffffffffffffffff82169050919050565b60006116fd826116d2565b9050919050565b61170d816116f2565b811461171857600080fd5b50565b60008135905061172a81611704565b92915050565b60008060408385031215611747576117466116c8565b5b60006117558582860161171b565b92505060206117668582860161171b565b9150509250929050565b6000819050919050565b61178381611770565b82525050565b600060208201905061179e600083018461177a565b92915050565b600080fd5b600080fd5b6000601f19601f8301169050919050565b7f4e487b7100000000000000000000000000000000000000000000000000000000600052604160045260246000fd5b6117f7826117ae565b810181811067ffffffffffffffff82111715611816576118156117bf565b5b80604052505050565b60006118296116be565b905061183582826117ee565b919050565b600067ffffffffffffffff821115611855576118546117bf565b5b61185e826117ae565b9050602081019050919050565b82818337600083830152505050565b600061188d6118888461183a565b61181f565b9050828152602081018484840111156118a9576118a86117a9565b5b6118b484828561186b565b509392505050565b600082601f8301126118d1576118d06117a4565b5b81356118e184826020860161187a565b91505092915050565b600060208284031215611900576118ff6116c8565b5b600082013567ffffffffffffffff81111561191e5761191d6116cd565b5b61192a848285016118bc565b91505092915050565b61193c816116f2565b82525050565b60006020820190506119576000830184611933565b92915050565b61196681611770565b811461197157600080fd5b50565b6000813590506119838161195d565b92915050565b600080604083850312156119a05761199f6116c8565b5b60006119ae8582860161171b565b92505060206119bf85828601611974565b9150509250929050565b600081519050919050565b600082825260208201905092915050565b60005b83811015611a035780820151818401526020810190506119e8565b60008484015250505050565b6000611a1a826119c9565b611a2481856119d4565b9350611a348185602086016119e5565b611a3d816117ae565b840191505092915050565b600060a0820190508181036000830152611a628188611a0f565b90508181036020830152611a768187611a0f565b9050611a856040830186611933565b611a926060830185611933565b611a9f608083018461177a565b9695505050505050565b600080600060608486031215611ac257611ac16116c8565b5b600084013567ffffffffffffffff811115611ae057611adf6116cd565b5b611aec868287016118bc565b935050602084013567ffffffffffffffff811115611b0d57611b0c6116cd565b5b611b19868287016118bc565b925050604084013567ffffffffffffffff811115611b3a57611b396116cd565b5b611b46868287016118bc565b9150509250925092565b600060208284031215611b6657611b656116c8565b5b6000611b7484828501611974565b91505092915050565b60006020820190508181036000830152611b978184611a0f565b905092915050565b60008060408385031215611bb657611bb56116c8565b5b600083013567ffffffffffffffff811115611bd457611bd36116cd565b5b611be0858286016118bc565b9250506020611bf185828601611974565b9150509250929050565b600060208284031215611c1157611c106116c8565b5b6000611c1f8482850161171b565b91505092915050565b600060a082019050611c3d6000830188611933565b8181036020830152611c4f8187611a0f565b9050611c5e604083018661177a565b8181036060830152611c708185611a0f565b90508181036080830152611c848184611a0f565b90509695505050505050565b600080600060608486031215611ca957611ca86116c8565b5b600084013567ffffffffffffffff811115611cc757611cc66116cd565b5b611cd3868287016118bc565b935050602084013567ffffffffffffffff811115611cf457611cf36116cd565b5b611d00868287016118bc565b9250506040611d1186828701611974565b9150509250925092565b60006060820190508181036000830152611d358186611a0f565b90508181036020830152611d498185611a0f565b90508181036040830152611d5d8184611a0f565b9050949350505050565b7f4e487b7100000000000000000000000000000000000000000000000000000000600052602260045260246000fd5b60006002820490506001821680611dae57607f821691505b602082108103611dc157611dc0611d67565b5b50919050565b600081905092915050565b6000611ddd826119c9565b611de78185611dc7565b9350611df78185602086016119e5565b80840191505092915050565b6000611e0f8284611dd2565b915081905092915050565b7f6578697400000000000000000000000000000000000000000000000000000000600082015250565b6000611e506004836119d4565b9150611e5b82611e1a565b602082019050919050565b60006020820190508181036000830152611e7f81611e43565b9050919050565b60008190508160005260206000209050919050565b60006020601f8301049050919050565b600082821b905092915050565b600060088302611ee87fffffffffffffffffffffffffffffffffffffffffffffffffffffffffffffffff82611eab565b611ef28683611eab565b95508019841693508086168417925050509392505050565b6000819050919050565b6000611f2f611f2a611f2584611770565b611f0a565b611770565b9050919050565b6000819050919050565b611f4983611f14565b611f5d611f5582611f36565b848454611eb8565b825550505050565b600090565b611f72611f65565b611f7d818484611f40565b505050565b5b81811015611fa157611f96600082611f6a565b600181019050611f83565b5050565b601f821115611fe657611fb781611e86565b611fc084611e9b565b81016020851015611fcf578190505b611fe3611fdb85611e9b565b830182611f82565b50505b505050565b600082821c905092915050565b600061200960001984600802611feb565b1980831691505092915050565b60006120228383611ff8565b9150826002028217905092915050565b61203b826119c9565b67ffffffffffffffff811115612054576120536117bf565b5b61205e8254611d96565b612069828285611fa5565b600060209050601f83116001811461209c576000841561208a578287015190505b6120948582612016565b8655506120fc565b601f1984166120aa86611e86565b60005b828110156120d2578489015182556001820191506020850194506020810190506120ad565b868310156120ef57848901516120eb601f891682611ff8565b8355505b6001600288020188555050505b505050505050565b7f646f6573206e6f74206578697374000000000000000000000000000000000000600082015250565b600061213a600e836119d4565b915061214582612104565b602082019050919050565b600060208201905081810360008301526121698161212d565b9050919050565b7f4e487b7100000000000000000000000000000000000000000000000000000000600052601160045260246000fd5b60006121aa82611770565b91506121b583611770565b92508282019050808211156121cd576121cc612170565b5b9291505056fea2646970667358221220f470f4cffac6a960af047d49d05b48a42de160135e10b08310aa979781ccec3f64736f6c63430008110033",
  "linkReferences": {},
  "deployedLinkReferences": {}
}